:100000000C94C5000C94E2000C94E2000C94E20005
:100010000C94E2000C94E2000C94E2000C94E200D8
:100020000C94E2000C94E2000C94E2000C94E200C8
:100030000C94E2000C94E2000C94E2000C94E200B8
:100040000C94E2000C94E2000C94E2000C94E200A8
:100050000C94E2000C94E2000C94E2000C94E20098
:100060000C94E2000C94E20007634236B79BD8A7D9
:100070001A39685618AEBAAB558C1D3CB7CC5763CD
:10008000BD6DEDFD753EF6177231BF000000803F7B
:1000900000407A10F35A00A0724E18090010A5D43F
:1000A000E80000E87648170000E40B54020000CA9C
:1000B0009A3B000000E1F5050000809698000000E2
:1000C00040420F000000A086010000001027000041
:1000D0000000E803000000006400000000000A00C7
:1000E000000000000100000000002C76D888DC67CA
:1000F0004F0823DFC1DFAE59E1B1B796E5E3E45322
:10010000C63AE651997696E8E6C28426EB898C9B3E
:1001100062ED407C6FFCEFBC9C9F40F2BAA56FA5DE
:10012000F490055A2AF75C936B6CF9676DC11BFC60
:10013000E0E40D47FEF520E6B500D0ED902E03007B
:10014000943577050080841E080000204E0A0000C8
:1001500000C80C333333330F986E12831141EF8D87
:100160002114893BE65516CFFEE6DB18D1844B38C7
:100170001BF77C1D901DA4BBE424203284725E22F8
:100180008100C9F124ECA1E53D2711241FBECFEF6A
:10019000D8E0DEBFCDBF15E0A0E0B1E0ECE7F6E1CE
:1001A00002C005900D92A23FB107D9F728E0A2EF57
:1001B000B5E001C01D92AA34B207E1F70E943305F1
:1001C0000C943C0B0C9400006F927F928F929F9244
:1001D000AF92BF92CF92DF92EF92FF920F931F9355
:1001E000CF93DF934B015A013A01660C771C660CE2
:1001F000771CEC0100E010E00815190554F56E01BC
:10020000E12CF12CEA14FB04FCF4F601608171810D
:10021000828193810E94B20620E030E040E85FE3F3
:100220000E94C7059B01AC0160E070E080E89FE39D
:100230000E943806F60161937193819391936F0147
:10024000FFEFEF1AFF0ADECF0F5F1F4FC60DD71D5E
:10025000D3CFDF91CF911F910F91FF90EF90DF905F
:10026000CF90BF90AF909F908F907F906F900895A8
:100270002F923F924F925F926F927F928F929F92B6
:10028000AF92BF92CF92DF92EF92FF920F931F93A4
:10029000CF93DF93CDB7DEB760970FB6F894DEBF8C
:1002A0000FBECDBF0E151F0509F087C0DE82CD82BF
:1002B00048013E872D875C874B879A8789879801FD
:1002C000220F331F220F331F38872F836F87788BBE
:1002D000212C312CE12CF12C8D859E85E816F90618
:1002E0000CF06BC000E010E0ED81FE810E171F07DF
:1002F0000CF055C0C801820D931D880F991F880FFF
:10030000991F29853A85280F391F3A832983CB8481
:10031000DC84C00ED11E8F8598899C838B83A12C91
:10032000B12CA814B904C4F5EB81FC814190519023
:1003300061907190FC83EB83F6016081062E000CC6
:10034000770B880B990B0E94E60620E030E0A901AC
:100350000E94C70529E232E842E05FE30E943808C4
:10036000A30192010E9438089B01AC01E981FA8146
:1003700060817181828193810E94C705E981FA8140
:100380006083718382839383FFEFAF1ABF0A2D814D
:100390003E81C20ED31EC5CF0F5F1F4FA5CF3FEFCB
:1003A000E31AF30A8F859889EF81F8858E0F9F1FD6
:1003B000988B8F87280C391C8FCF60960FB6F894D6
:1003C000DEBF0FBECDBFDF91CF911F910F91FF9088
:1003D000EF90DF90CF90BF90AF909F908F907F90E5
:1003E0006F905F904F903F902F9008954F925F9243
:1003F0006F927F928F929F92AF92BF92CF92DF9235
:10040000EF92FF920F931F93CF93DF936B01FC0149
:1004100081909190A190B1908F01C1E0D0E0E12C4A
:10042000F12CCC15DD059CF4F801419051906190C0
:1004300071908F01A3019201C501B4010E9433069E
:1004400087FF03C0530142017E012196EACFC70115
:10045000DF91CF911F910F91FF90EF90DF90CF90A0
:10046000BF90AF909F908F907F906F905F904F90D4
:1004700008952F923F924F925F926F927F928F9248
:100480009F92AF92BF92CF92DF92EF92FF920F9323
:100490001F93CF93DF9300D000D0CDB7DEB73C01E0
:1004A0002901480187017601650194010E94380104
:1004B0004B825C82C501880F991F880F991F9A8310
:1004C000898323012B803C80319421943108C12CF5
:1004D000D12CC814D904F4F58201EB80FC80C7014B
:1004E000820D931D8A159B052CF5F70161917F0103
:1004F000062E000C770B880B990B0E94E60620E075
:1005000030E0A9010E94C70529E232E842E05FE33A
:100510000E9438089B01AC01F801608171818281E1
:1005200093810E94C705F801619371938193919320
:100530008F01D5CFFFEFCF1ADF0A8B819C818A0D07
:100540009B1D9C838B83E981FA814E0E5F1E2A18C6
:100550003B08BFCFA501B401C3010F900F900F90CE
:100560000F90DF91CF911F910F91FF90EF90DF904F
:10057000CF90BF90AF909F908F907F906F905F9043
:100580004F903F902F900C94E4001092C50087E6A6
:100590008093C400E1ECF0E0808188608083E2EC2D
:1005A000F0E080818660808308959091C00095FF7F
:1005B000FCCF8093C600089522982398ECE7F0E0E2
:1005C00080818F7780838081806480838081807F39
:1005D000808380818083EAE7F0E080818768808380
:1005E00008952A9905C085B183FB882780F908956D
:1005F00081E008952F923F924F925F926F927F9287
:100600008F929F92AF92BF92CF92DF92EF92FF9222
:100610000F931F93CF93DF93CDB7DEB760970FB6DD
:10062000F894DEBF0FBECDBF2DB73EB7388B2F87F6
:100630008DB79EB7885592400FB6F8949EBF0FBEF7
:100640008DBFADB7BEB711964D01212C312C512C69
:10065000412C712C612CE12CD12CC12CB12CA12C62
:1006600010E000E0F12C1F82188619861A860E947D
:10067000F10281118AC0F101EE0FFF1FEE0FFF1F83
:10068000FA83E983EE5FFE4F20812B8731813C871F
:1006900042814D8783818E8724E635EE4DED5FEBF9
:1006A0006E2D7D2D8C2D9B2D0E9438086B837C83B5
:1006B0008D839E832FEE32E946E45FE3652D742D32
:1006C000872D962D0E9438089B01AC016B817C819F
:1006D0008D819E810E94C7052B013C0125E434EBEE
:1006E00045EE5DE36B857C858D859E850E9438088F
:1006F0006B837C838D839E8320E030E0A9016A2D8B
:10070000712F802F9F2D0E9438089B01AC016B81B7
:100710007C818D819E810E94C7056B837C838D8344
:100720009E8325E434EB45EE5DEB6F81788589850A
:100730009A850E9438089B01AC016B817C818D8178
:100740009E810E94C705A30192010E94C6059B01DC
:10075000E981FA81E80DF91DAB01BC0140835183A9
:1007600062837383AFEF2A1A3A0A5E2C4D2C7C2CDD
:100770006B2CE22ED32EC82EB92EAF821887098794
:10078000FA86AB841C850D85FE84EFEDF1E0319790
:10079000F1F700C00000F6E92F1631040CF467CF22
:1007A000C4014496F401D40154964D915D916D912C
:1007B0007C91579741935193619371938E179F0743
:1007C00091F77401BCEAEB1ABDEFFB0A8401F80152
:1007D0002081318142815381648175818681978135
:1007E0000E94C6059B01AC010E943808D8016D9398
:1007F0007D938D939D938D01EA16FB0641F7E2EF01
:10080000F5E0FA83E9836F0100E010E05401E12C88
:10081000F12CF5E9EF16F104B9F0C8018E199F0922
:100820000F9794F4D5012D913D914D915C91F60176
:1008300060817181828193810E94C705D6016D9389
:100840007D938D939C931397BFEFEB1AFB0AE4E023
:10085000AE0EB11C0E151F05E4F60F5F1F4FF4E03E
:10086000CF0ED11C0539110589F6212C312C412CD4
:10087000512C320173016201410123E3221631043C
:100880001CF032E3832E912CA12CB12C01E010E05E
:1008900080169106CCF034E0A31AB108E981FA8100
:1008A000EA0DFB1D2081318142815381A981BA81EA
:1008B0006D917D918D919C910E94BD0718160CF051
:1008C00057C00F5F1F4FE4CF22E6221631040CF40D
:1008D00079C024E9A22EB12CA218B30801E010E0DF
:1008E000A016B1060CF054C0A981BA818D909D90DC
:1008F000AD90BC9023E333E343EB5EE3C501B40169
:100900000E94BD071816A4F5A3019201C501B40108
:100910000E94BD0718160CF459C020E030E040E6F4
:100920005FE3C701B6010E9438086B017C0120E03B
:1009300030E040E05EE3C501B4010E943808A70141
:1009400096010E94C7056B017C019B01AC0160E030
:1009500070E0CB010E94C60520E030E040E85EE395
:100960000E943808A70196010E94C7052B013C018F
:10097000BFEF2B1A3B0AE981FA813496FA83E983A7
:10098000F5E92F16310409F077CF8FEF9FEF1FC0E5
:10099000F801EE0FFF1FEE0FFF1F29813A81E20FD2
:1009A000F31F2081318142815381A981BA816D91E8
:1009B0007D918D919C910E94BD071816CCF60F5F1A
:1009C0001F4F8ECF82E3A82EB12C88CFC101EF85B7
:1009D000F8890FB6F894FEBF0FBEEDBF60960FB654
:1009E000F894DEBF0FBECDBFDF91CF911F910F9165
:1009F000FF90EF90DF90CF90BF90AF909F908F903F
:100A00007F906F905F904F903F902F9008950F933D
:100A10001F93CF93DF93CDB7DEB72C970FB6F89423
:100A2000DEBF0FBECDBF8E010F5F1F4F28E04BE032
:100A30000E94B308F80181918F01882349F00E9438
:100A4000D50287E09DE00197F1F700C00000F2CFEA
:100A50002C960FB6F894DEBF0FBECDBFDF91CF91BD
:100A60001F910F9108954F925F926F927F928F9294
:100A70009F92AF92BF92CF92DF92EF92FF920F932D
:100A80001F93CF93DF93CDB7DEB7E8970FB6F894F7
:100A9000DEBF0FBECDBF0E94DC02CE0101962C014D
:100AA00088E2F20111928A95E9F74E01F9E28F0E80
:100AB000911C80E1F40111928A95E9F70E94FA02F3
:100AC0003C01BC01660F771F660F771F66587A4F8F
:100AD0009AE0A92EB12C2DE3C22ED12C3DE3E32EBA
:100AE000F12C01E010E026E833E040E953E0C201D8
:100AF0000E94390244E0A42EB12C5AE0C52ED12C1C
:100B00006AE0E62EF12C2AE533E04EE553E0B2012F
:100B1000C4010E94390264E070E0C4010E94F60141
:100B200090930101809300010E94C502B301770CEC
:100B3000880B990B0E94E6060E9407053E01F9E327
:100B40006F0E711CF40161917191819191914F012E
:100B50000E94070586149704A9F780E090E0E896C4
:100B60000FB6F894DEBF0FBECDBFDF91CF911F91BE
:100B70000F91FF90EF90DF90CF90BF90AF909F903C
:100B80008F907F906F905F904F9008955058BB2743
:100B9000AA270E94DE050C9483070E94750738F08F
:100BA0000E947C0720F039F49F3F19F426F40C943E
:100BB0004B070EF4E095E7FB0C944507E92F0E94E4
:100BC000940758F3BA17620773078407950720F054
:100BD00079F4A6F50C94B6070EF4E0950B2EBA2F17
:100BE000A02D0B01B90190010C01CA01A001112433
:100BF000FF27591B99F0593F50F4503E68F11A16DF
:100C0000F040A22F232F342F4427585FF3CF46956F
:100C100037952795A795F0405395C9F77EF41F1691
:100C2000BA0B620B730B840BBAF09150A1F0FF0F5B
:100C3000BB1F661F771F881FC2F70EC0BA0F621F47
:100C4000731F841F48F4879577956795B795F79537
:100C50009E3F08F0B0CF9395880F08F09927EE0FCC
:100C60009795879508950E94210708F481E00895DB
:100C70000E944C060C9483070E947C0758F00E9447
:100C8000750740F029F45F3F29F00C944507511196
:100C90000C94B7070C944B070E94940768F39923B0
:100CA000B1F3552391F3951B550BBB27AA27621768
:100CB0007307840738F09F5F5F4F220F331F441F75
:100CC000AA1FA9F335D00E2E3AF0E0E832D09150A9
:100CD0005040E695001CCAF72BD0FE2F29D0660F96
:100CE000771F881FBB1F261737074807AB07B0E8D9
:100CF00009F0BB0B802DBF01FF2793585F4F3AF0DF
:100D00009E3F510578F00C9445070C94B7075F3F60
:100D1000E4F3983ED4F3869577956795B795F79564
:100D20009F5FC9F7880F911D9695879597F908954C
:100D3000E1E0660F771F881FBB1F621773078407E8
:100D4000BA0720F0621B730B840BBA0BEE1F88F7F7
:100D5000E095089529F416F00C9445070C94B60715
:100D60000C944B070E949C07A8F39638A0F707F84D
:100D70000F92E8942BE33AEA48EB5FE70E944E08B3
:100D80000F920F920F924DB75EB70F920E94040818
:100D9000E8E6F0E00E944E074F915F91EF91FF91DE
:100DA000E595EE1FFF1F49F0FE57E0684427EE0F60
:100DB000441FFA95E1F74195550B0E94CE070F901D
:100DC00007FE0C94C2070895E89409C097FB3EF40F
:100DD00090958095709561957F4F8F4F9F4F992388
:100DE000A9F0F92F96E9BB279395F6958795779506
:100DF0006795B795F111F8CFFAF4BB0F11F460FFC6
:100E00001BC06F5F7F4F8F4F9F4F16C0882311F01D
:100E100096E911C0772321F09EE8872F762F05C031
:100E2000662371F096E8862F70E060E02AF09A95CC
:100E3000660F771F881FDAF7880F9695879597F9C1
:100E40000895990F0008550FAA0BE0E8FEEF16165B
:100E50001706E807F907C0F012161306E407F507AE
:100E600098F0621B730B840B950B39F40A2661F022
:100E7000232B242B252B21F408950A2609F4A140C5
:100E8000A6958FEF811D811D089597F99F6780E8D2
:100E900070E060E008959FEF80EC0895DF93CF93BA
:100EA0001F930F93FF92EF92DF927B018C01689466
:100EB00006C0DA2EEF010E944B08FE01E894A591CE
:100EC0002591359145915591A6F3EF010E94DE05DC
:100ED000FE019701A801DA9469F7DF90EF90FF9087
:100EE0000F911F91CF91DF91089500240A94161657
:100EF000170618060906089500240A941216130608
:100F0000140605060895092E0394000C11F4882395
:100F100052F0BB0F40F4BF2B11F460FF04C06F5FB1
:100F20007F4F8F4F9F4F089557FD9058440F551F87
:100F300059F05F3F71F04795880F97FB991F61F05B
:100F40009F3F79F087950895121613061406551FD2
:100F5000F2CF4695F1DF08C0161617061806991F3E
:100F6000F1CF86957105610508940895E894BB2733
:100F700066277727CB0197F908950E94210708F487
:100F80008FEF08959B01AC0160E070E080E89FE383
:100F90000C9438060C9445070C94A5080E949C07F5
:100FA000D8F39923C9F3940F511DA3F391505040E6
:100FB00094F059F0882332F0660F771F881F915004
:100FC0005040C1F79E3F51052CF7880F911D969513
:100FD000879597F908955F3FACF0983E9CF0BB274A
:100FE000869577956795B79508F4B1609395C1F7A5
:100FF000BB0F58F711F460FFE8CF6F5F7F4F8F4F43
:101000009F4FE3CF0C94B707FA01DC01AA0FBB1F77
:101010009B01AC01BF5728F422273327442750787F
:1010200020C0B75190F4AB2F0024469537952795F3
:10103000011CA395D2F3002071F0220F331F441F2F
:10104000B395DAF30ED00C94C60561307105A0E8B3
:101050008A07B94630F49B01AC01662777278827B9
:101060009078309621F02083318342835383089512
:101070000E944B080C9483070E94750738F00E9469
:101080007C0720F0952311F00C9445070C944B0736
:1010900011240C94B7070E94940770F3959FC1F335
:1010A000950F50E0551F629FF001729FBB27F00D16
:1010B000B11D639FAA27F00DB11DAA1F649F66276B
:1010C000B00DA11D661F829F2227B00DA11D621FBA
:1010D000739FB00DA11D621F839FA00D611D221F74
:1010E000749F3327A00D611D231F849F600D211D58
:1010F000822F762F6A2F11249F5750409AF0F1F0DB
:1011000088234AF0EE0FFF1FBB1F661F771F881F43
:1011100091505040A9F79E3F510580F00C9445072F
:101120000C94B7075F3FE4F3983ED4F38695779528
:101130006795B795F795E7959F5FC1F7FE2B880FE9
:10114000911D9695879597F908959F3F31F091509D
:1011500020F4879577956795B795880F911D96959B
:10116000879597F90895EF920F931F93CF93DF938D
:10117000E80147FD02C034E001C034E1042E000C58
:10118000550B57FF03C0519541955109E32E022F8E
:10119000242FAE010E94D308CE01DF91CF911F9181
:1011A0000F91EF900895A9E0B0E0E9EDF8E00C941C
:1011B0000B0B6A01122FB02E2BE3201720F0FF2417
:1011C000F394F00E02C02CE3F22E0F2D27E0AE01B7
:1011D0004F5F5F4F0E942D0ABC014981842F8970A7
:1011E000813031F0E1FC06C0E0FE06C090E205C0AF
:1011F0009DE203C09BE201C090E05E2D507143FF71
:101200003CC0911102C083E001C084E0811718F452
:10121000212F281B01C020E051110BC0F601822FA5
:1012200030E2882319F031938150FBCFC20ED11CDC
:1012300020E0992329F0D6019C93F60131966F01A5
:10124000C6010396E2FE0AC03EE4D6013C9341E4A7
:1012500011964C93119712963C9306C03EE6F60108
:10126000308341E641833283FC01322F40E2332355
:1012700009F442C041933150FACF42FF44C091116A
:1012800002C083E001C084E0811718F4212F281BDD
:1012900001C020E051110BC0F601822F30E28823FB
:1012A00019F031938150FBCFC20ED11C20E099235D
:1012B00029F0D6019C93F60131966F01C601039681
:1012C000E2FE0BC039E4D6013C933EE411963C9318
:1012D000119736E412963C9307C039E6F601308345
:1012E0003EE6318336E63283FC01322F40E233237F
:1012F00019F041933150FBCFFC01E20FF11D108238
:101300008EEF9FEFA6C021E030E0911102C020E0F7
:1013100030E0161617061CF4FB01319602C0E1E01E
:10132000F0E02E0F3F1FBB2021F0EB2DF0E03196B7
:1013300002C0E0E0F0E02E0F3F1FE12FF0E02E179B
:101340003F071CF4121B212F01C020E08E2D887155
:1013500059F4F601822F30E2882319F0319381503D
:10136000FBCFC20ED11C20E0992329F0D6019C931B
:10137000F60131966F0151110BC0F601822F90E3F7
:10138000882319F091938150FBCFC20ED11C20E02D
:101390000F2D060F9A81342F307144FF03C0913313
:1013A00009F40150101624F4093018F008E001C0C7
:1013B00001E0AB0177FF02C040E050E0FB01E41B1D
:1013C000F50BA1E0B0E0AC0FBD1FEA0FFB1F8EE2F2
:1013D000A82E4B01801A91080B2D10E01195019554
:1013E00011094F3FBFEF5B0721F4D601AC92119674
:1013F0006D01641775072CF08416950614F481812D
:1014000001C080E3415051093196D60111967D010A
:101410004017510724F0D6018C936701E2CF64177F
:10142000750739F4963320F4953319F4311101C05E
:1014300081E3F6018083F701822F90E2882319F07F
:1014400091938150FBCFF701E20FF11D108280E0F4
:1014500090E02996ECE00C94270B283008F027E068
:101460003327DA01990F311D87FD916000966105E0
:10147000710539F432602E5F3D9330E32A95E1F730
:1014800008959F3F30F080387105610509F03C5F99
:101490003C5F3D93913008F08068911DDF93CF93BE
:1014A0001F930F93FF92EF92192F987F9695E92F34
:1014B00096959695E90FFF27E651FF4F9927332719
:1014C000EE24FF24A701E70105900894079428F46F
:1014D000360FE71EF81E491F511D660F771F881F24
:1014E000991F0694A1F70590079428F4E70EF81EBB
:1014F000491F561FC11D770F881F991F661F06942D
:10150000A1F70590079428F4F80E491F561FC71F2E
:10151000D11D880F991F661F771F0694A1F70590AC
:10152000079420F4490F561FC71FD81F990F661F35
:10153000771F881F0694A9F784911095177041F0C2
:10154000D695C79557954795F794E7941A95C1F79F
:10155000E0E9F0E0689415901591359165919591C9
:1015600005907FE27395E118F10A430B560BC90B06
:10157000D009C0F7E10CF11E431F561FC91FD01D33
:101580007EF4703311F48A95E6CFE894015030F080
:10159000080F0AF40027021708F4202F2395022FC2
:1015A0007A3328F079E37D932A95E9F710C07D938B
:1015B0002A9589F606949795679537951795179408
:1015C000E118F10A430B560BC90BD00998F023958B
:1015D0007E9173957A3308F070E37C932013B8F70B
:1015E0007E9170617D9330F0839571E37D9370E31C
:1015F0002A95E1F71124EF90FF900F911F91CF9161
:10160000DF91992787FD909508952F923F924F92F1
:101610005F926F927F928F929F92AF92BF92CF9282
:10162000DF92EF92FF920F931F93CF93DF93CDB78B
:10163000DEB7CA1BDB0B0FB6F894DEBF0FBECDBF03
:1016400009942A88398848885F846E847D848C84D4
:101650009B84AA84B984C884DF80EE80FD800C81DD
:101660001B81AA81B981CE0FD11D0FB6F894DEBFC0
:0C1670000FBECDBFED010895F894FFCF30
:10167C00FFFF000000000000000000000000AE476B
:10168C00E1BDCDCCCCBD5C8FC2BD9A9999BDCDCC02
:10169C004CBDAE4761BD0AD7A3BC8FC2753CEC51A3
:1016AC00383DCDCCCC3C0AD7233C0AD7A33CCDCC7F
:1016BC00CC3C0AD7A3BB0AD723BC0AD7233CCDCC3E
:1016CC004C3D0AD7233D8FC2753C0AD7A33C0AD7A1
:1016DC00A33C0AD7A33B8FC275BC0AD7A33BCDCC86
:1016EC00CC3CCDCCCC3CCDCCCC3C0AD7233DAE476E
:1016FC00613D295C0F3D8FC2753C8FC2753C9A9938
:10170C00993DEC51383D8FC2753CCDCCCC3C295C1D
:10171C008F3D295C0F3DEC51383D8FC2753DEC512E
:10172C00B83DEC51B83D295C8F3DCDCCCC3DB81EBD
:10173C00053EB81E053E1F85EB3DAE47E13D8FC211
:10174C00F53D9A99993D8FC2753C0AD7A33CAE479B
:10175C0061BDAE47E1BDEC51B8BDAE4761BD0AD726
:10176C00A33BCDCCCC3CEC51B83D3333333EF628C7
:10177C009C3E3333B33E7B14EE3E14AE073F295CE4
:10178C002F3F14AE473FCDCC6C3FF6287C3F00007A
:10179C00903FC3F5983FCDCCAC3FB81EB53F85EB21
:1017AC00C13FEC51C83F3D0AD73F52B8DE3FAE4770
:1017BC00D13FCDCCAC3F1F852B3F713DCA3EAE47D0
:1017CC00613DCDCC4CBD14AE47BE666666BE48E1ED
:1017DC007ABE85EB91BED7A3B0BED7A3B0BEEC51F9
:1017EC00B8BEA470BDBECDCCCCBE713DCABE14AECD
:1017FC00C7BEE17AD4BE8FC2F5BE8FC2F5BEA4704F
:10180C00FDBE666606BFEC5118BFA4701DBF6666B0
:10181C0026BFCDCC2CBF9A9939BF9A9939BF9A99CA
:10182C0039BFAE4741BF713D4ABF1F854BBF14AE98
:10183C0047BF713D4ABF666646BF666646BF85EBCD
:10184C0051BFA4705DBF7B146EBFE17A74BF713D54
:10185C006ABFCDCC6CBF3D0A77BF3D0A77BF9A9962
:10186C0079BFA4707DBF52B87EBFA4707DBF85EBDD
:10187C0081BF5C8F82BFD7A380BFAE4781BF9A99CF
:10188C0079BFF6287CBFD7A380BF52B87EBF295C36
:10189C006FBF1F856BBF666666BFA4705DBF14AE5D
:1018AC0047BF48E13ABF1F852BBF5C8F22BF713DFC
:1018BC000ABF000000BF8FC2F5BEEC51F8BE00009D
:1018CC0000000000000000000000F009FDF7F10529
:1018DC000E0719EAF4C70BF4F300F2FF0E150FF123
:1018EC0003FC0DFEF3F8F8020DE2030BF81118F0EF
:1018FC00E701F2041302FFFFFEFF000200010000EB
:10190C00D0E811F62FBFE9401CD7E6E104041CCF48
:10191C0013220FEEEAE6050506DC280C02FED9FAC6
:10192C000FF800F31E07FC01DFF4FAFCF9041606AD
:10193C00FB08D4EBE704F3170C0B0402D7E9DC1615
:10194C00EA0B0C060403E003FC12ECF6070708FD97
:10195C00F810251100DF07020005FA0A401526E9E8
:10196C000A00F602FDFF2C1D2CFE0CFBF20300FD01
:10197C000715070C02F8F8020700F609F60EFCF939
:10198C00FC03070902FF0012FB0001FF03090B0116
:10199C000A10020403FC05FF0A0A0B06080602FFE4
:1019AC0009FB040E0FFE0800020206FC05050E02E0
:1019BC0001010B0003FC03010203000509FF00FDFC
:1019CC0000FEFA03010201FE000000FBF9FF01FC1E
:1019DC00FFFE000302F7FCFDFFFC01FD000100F817
:1019EC00FEFEFFFE010000FFFEFCFE0000010001F8
:1019FC0000FEFCFEFF000100000300FFFDFD00FFE8
:101A0C000101FF03FE0100FD02FD0003FE02FC02CA
:101A1C0003FE03FD0004FD01FD01030102FDFF03B4
:101A2C00FD01FF000100FFFEFE01FD01FF0200FFB2
:101A3C00FD00FE00FF00FF0200FFFB01FE00FFFFA8
:101A4C0000020001F9010000F9FE00020003FE0093
:101A5C0000FEFAFE010403030DFFFEFE0300030368
:101A6C0005051D01FD03060205F8000B1B0500060C
:101A7C00FB0703F9000A1A070000F406010202032F
:101A8C001402FFF6F603FF0B03F90800F9F9000046
:101A9C00020700F4F800FBFC040005FCFBF3EA026F
:101AAC00FEFA0B0107EFF7F6DF0103F60C0205EA6D
:101ABC00F7F8E40104F40C0200EDFAF5F90001F674
:101ACC000500F9F300E90EFFF8FD05FBF5FA05E05A
:101ADC001CFDEF03FDFAF5F903E71EFAF004F4FE22
:101AEC00F8F6FEF51CF6F902EB06F8F5FC0319F70F
:101AFC000303EB07F8F1FC1113FC0C06EF03FCE9F4
:101B0C00FD210BFF1502F4FD09D7FA2FFCFE22F67E
:101B1C00FDF80ECD022EF30423EE07E711C80A2AB6
:101B2C00F40D1EE10BDC11C80F25FC1B18E10FD8BE
:101B3C0014C00623FF1626D40DEB10C10014091394
:101B4C0025DF10F110BFF70B080E23ED0CF704CBBB
:101B5C00F8F3100E1C0512F5FCDCFBE826091A1331
:021B6C0013F86C
:00000001FF
